:100000000C9462000C948A000C948A000C948A0070
:100010000C948A000C948A000C948A000C948A0038
:100020000C948A000C948A000C948A000C948A0028
:100030000C948A000C948A000C948A000C948A0018
:100040000C944D080C948A000C948C030C94660359
:100050000C948A000C948A000C948A000C948A00F8
:100060000C94BE030C948A000000000024002700BA
:100070002A0000000000250028002B0000000000DE
:1000800023002600290004040404040404040202DA
:100090000202020203030303030301020408102007
:1000A0004080010204081020010204081020000012
:1000B0000008000201000003040700000000000027
:1000C0000000950A11241FBECFEFD8E0DEBFCDBFE0
:1000D00011E0A0E0B1E0ECE0F8E102C005900D9283
:1000E000A235B107D9F722E0A2E5B1E001C01D9227
:1000F000A33EB207E1F710E0C2E6D0E004C02197CA
:10010000FE010E94F90BC136D107C9F70E9497087A
:100110000C94040C0C940000CF92DF92EF92FF92AB
:100120000F931F93CF93DF936C017A018B01C0E093
:10013000D0E0CE15DF0581F0D8016D918D01D6019B
:10014000ED91FC910190F081E02DC6010995892B7C
:1001500011F02196EECF7E01C701DF91CF911F9163
:100160000F91FF90EF90DF90CF900895FC01538D99
:10017000448D252F30E0842F90E0821B930B541781
:1001800010F0CF96089501970895FC01918D828D0E
:10019000981761F0828DDF01A80FB11D5D968C91DB
:1001A000928D9F5F9F73928F90E008958FEF9FEFE6
:1001B0000895FC01918D828D981731F0828DE80FA2
:1001C000F11D858D90E008958FEF9FEF0895FC015C
:1001D000918D228D892F90E0805C9F4F821B910929
:1001E0008F73992708958CE192E00E94E70021E047
:1001F000892B09F420E0822F0895FC01848DDF0112
:10020000A80FB11DA35ABF4F2C91848D90E0019689
:100210008F739927848FA689B7892C93A089B18978
:100220008C91837080648C93938D848D981306C019
:100230000288F389E02D80818F7D80830895EF927D
:10024000FF920F931F93CF93DF93EC0181E0888F90
:100250009B8D8C8D981305C0E889F989808185FD77
:1002600026C0F62E0B8D10E00F5F1F4F0F73112766
:10027000E02E8C8DE8120CC00FB607FCFACFE8898F
:10028000F989808185FFF5CFCE010E94FD00F1CF75
:100290008B8DFE01E80FF11DE35AFF4FF0829FB7EF
:1002A000F8940B8FEA89FB89808180620AC09FB72E
:1002B000F894EE89FF896083E889F98980818370E9
:1002C000806480839FBF81E090E0DF91CF911F9198
:1002D0000F91FF90EF900895CF93DF93EC01888DFD
:1002E0008823C9F0EA89FB89808185FD05C0A8893A
:1002F000B9898C9186FD0FC00FB607FCF5CF8081C0
:1003000085FFF2CFA889B9898C9185FFEDCFCE0109
:100310000E94FD00E7CFDF91CF91089580E090E04B
:10032000892B29F00E94F30081110C94000008959C
:1003300085ED8093BC008091BC0084FDFCCF1092C1
:10034000F701089540919601262F30E0240F311DCA
:1003500021323105DCF42091F7012430C9F4FC018D
:1003600080E090E0861758F4309196012191DC01ED
:10037000AC58BE4FA30FB11D2C930196F3CF8091C3
:100380009601680F6093960180E0089581E00895DA
:1003900082E00895089508950895E0917301809191
:1003A0007201E81730F4F0E0EE5AFE4F808190E0E1
:1003B00008958FEF9FEF08959091730180917201DE
:1003C000981750F4E92FF0E0EE5AFE4F208130E00C
:1003D0009F5F9093730102C02FEF3FEFC901089513
:1003E0008091720190E020917301821B9109089520
:1003F000CF92DF92EF92FF920F931F93CF93DF93F1
:100400007C01CB018A012091F801222389F0EB01C4
:100410006B01C40ED51ECC15DD0569F06991D701BD
:10042000ED91FC910190F081E02DC7010995F3CF8A
:10043000642F0E94A201C801DF91CF911F910F91FB
:10044000FF90EF90DF90CF900895CF93DF931F92AE
:10045000CDB7DEB769832091F8012223D1F0209136
:100460001B02203240F021E030E0FC013383228384
:1004700080E090E015C08091F901E82FF0E0E650AF
:10048000FE4F998190838F5F8093F90180931B02C7
:1004900005C061E0CE0101960E94A20181E090E0DA
:1004A0000F90DF91CF91089521E001C0220F6A954E
:1004B000EAF7DC011C962C931C971A965C934E93DA
:1004C0001997ED91FC910484F585E02D60E0099485
:1004D000DC01ED91FC910684F785E02D41E0099562
:1004E00081E090E0089508950895089580E090E0F7
:1004F00008950E94FF0B0F931F93CF93DF93062F56
:100500000F70423019F440E0602F0EC0142FEC0140
:1005100070E084E0759567958A95E1F7CE010E94B9
:100520004F07412F602FCE01DF91CF911F910F9187
:100530000C944F07FC0184858823A9F0218532851E
:100540002115310519F4611106C007C021303105AC
:1005500021F4611102C0858701C015866585CF0130
:100560000E960C942C070895CF93DF93EC01813005
:10057000910519F460E088E009C08230910549F4E2
:1005800060E084E00E94A80760E08CE00E94A80779
:1005900025C08330910559F460E086E00E94A807E9
:1005A00060E088E00E94A80760E08AE02FC0843005
:1005B000910539F460E084E00E94A80760E086E0DD
:1005C0001DC0059759F460E084E00E94A80760E030
:1005D00086E00E94A80760E088E010C02697D1F46A
:1005E00060E084E00E94A80760E086E00E94A8071F
:1005F00060E087E00E94A80760E089E00E94A80709
:1006000060E08AE00E94A80760E08CE0DF91CF9173
:100610000C94A807DF91CF910895CF93DF93EC015D
:100620008130910519F461E088E009C082309105BC
:1006300049F461E084E00E94A80761E08CE00E9438
:10064000A80725C08330910559F461E086E00E9437
:10065000A80761E088E00E94A80761E08AE02FC057
:100660008430910539F461E084E00E94A80761E0DC
:1006700086E01DC0059759F461E084E00E94A80758
:1006800061E086E00E94A80761E088E010C026973C
:10069000D1F461E084E00E94A80761E086E00E9456
:1006A000A80761E087E00E94A80761E089E00E9456
:1006B000A80761E08AE00E94A80761E08CE0DF9172
:1006C000CF910C94A807DF91CF9108951F920F92BC
:1006D0000FB60F9211242F933F934F935F936F9315
:1006E0007F938F939F93AF93BF93EF93FF938CE18F
:1006F00092E00E94FD00FF91EF91BF91AF919F9119
:100700008F917F916F915F914F913F912F910F90BA
:100710000FBE0F901F9018951F920F920FB60F9259
:1007200011242F938F939F93EF93FF93E0912C02CB
:10073000F0912D028081E0913202F091330282FD2E
:1007400012C09081809135028F5F8F7320913602A5
:10075000821751F0E0913502F0E0E45EFD4F958F95
:100760008093350201C08081FF91EF919F918F911D
:100770002F910F900FBE0F901F9018951F920F9200
:100780000FB60F9211242F933F934F935F936F9364
:100790007F938F939F93AF93BF93EF93FF9380913A
:1007A000B900887F803609F49CC068F5883209F466
:1007B0005BC090F4803109F454C038F4882309F404
:1007C000F6C0883009F44DC0F6C0883109F44CC039
:1007D000803209F45DC0EFC0803409F468C048F489
:1007E000803309F455C0883309F0E5C08093F501E2
:1007F000D8C0803509F44FC0883509F45DC088340D
:1008000009F0D9C0D6C0883909F4C7C0A8F4883720
:1008100009F467C038F4883609F463C0803709F4F6
:1008200060C0C9C0883809F4B8C0803909F45FC015
:10083000803809F0C0C05BC0803B09F486C038F442
:10084000803A09F466C0883A09F47FC0B4C0803C9D
:1008500009F4A7C0883C09F4A4C0883B09F48AC005
:10086000AAC08091D20110C09091F4018091F3014F
:10087000981770F5E091F40181E08E0F8093F401F8
:10088000F0E0ED52FE4F80818093BB0085EC86C086
:100890008093F5018EC0E091F40181E08E0F80938A
:1008A000F4018091BB00F0E0ED52FE4F8083909107
:1008B000F4018091F3016EC0E091F40181E08E0FAC
:1008C0008093F4018091BB00F0E0ED52FE4F8083F5
:1008D0008091F60181116DC081E08093D10184EA9D
:1008E00061C083E08093F7011092BA01CFCF80916D
:1008F000BA01803208F051C0E091BA0181E08E0F58
:100900008093BA018091BB00F0E0E656FE4F8083F1
:10091000BDCF85EC8093BC001092F7018091BA01A5
:10092000803230F4E091BA01F0E0E656FE4F1082DA
:100930006091BA0170E0E0919801F09199018AE923
:1009400091E009951092BA0136C084E08093F701D6
:100950001092970110929601E0919401F091950107
:10096000099580919601811105C081E080939601DF
:1009700010927401E091970181E08E0F80939701AE
:10098000F0E0EC58FE4F80818093BB00909197017E
:1009900080919601981708F479CF85E88093BC0080
:1009A0000AC085EC8093BC001092F70104C010923D
:1009B000F5010E949801FF91EF91BF91AF919F9136
:1009C0008F917F916F915F914F913F912F910F90F8
:1009D0000FBE0F901F901895DC01ED91FC910684DD
:1009E000F785E02D40E009940F931F93CF93DF9399
:1009F000EC01423018F08C8188608C834F836887CB
:100A0000222329F0413019F48C8184608C8364E6C0
:100A100070E080E090E00E9413086C8164FD31C0BA
:100A2000E881F9810684F785E02D42E063E0CE019C
:100A300009958BE496E40197F1F7E881F981068442
:100A4000F785E02D42E063E0CE01099503E512E071
:100A5000C8010197F1F7E881F9810684F785E02D57
:100A600042E063E0CE010995C8010197F1F7E88102
:100A7000F9810684F785E02D42E062E0CE01099518
:100A800017C06062CE010E94EC048BE496E40197EB
:100A9000F1F76C816062CE010E94EC0403E512E084
:100AA000C8010197F1F76C816062CE010E94EC04ED
:100AB000C8010197F1F76C816062CE010E94EC04DD
:100AC0008BEE90E00197F1F784E08D836CE0CE012E
:100AD0000E94EC0461E0CE010E94EC048BE39FE1F4
:100AE0000197F1F782E08E8366E0CE010E94EC046C
:100AF000E881F9810484F585E02D6FEFCE01DF9167
:100B0000CF911F910F910994EF92FF920F931F9332
:100B1000CF93DF93EC01062FF42EE22E8B85888B8A
:100B200010927301109272011092F90110921B023F
:100B30001092F70111E01093F6011092D10161E0DB
:100B400082E10E94A80761E083E10E94A8078091EA
:100B5000B9008E7F8093B9008091B9008D7F80931A
:100B6000B90088E48093B80085E48093BC008AECE7
:100B700091E090939501809394018BEC91E0909398
:100B800099018093980188891093F80180931A0243
:100B90001092F90110921B020E94D00691E081117F
:100BA00090E0998B811105C089EB92E00E94DC01F5
:100BB0008E878989882339F01F861C8260E0CE01E8
:100BC0000E960E942C072E2D4F2D602FCE01DF9107
:100BD000CF911F910F91FF90EF900C94F40483300C
:100BE00081F028F4813099F08230A1F008958730A7
:100BF000A9F08830B9F08430D1F4809180008F7DE5
:100C000003C0809180008F7780938000089584B521
:100C10008F7702C084B58F7D84BD08958091B00028
:100C20008F7703C08091B0008F7D8093B0000895CE
:100C30003FB7F8948091DF029091E002A091E10229
:100C4000B091E20226B5A89B05C02F3F19F001968E
:100C5000A11DB11D3FBFBA2FA92F982F8827820F42
:100C6000911DA11DB11DBC01CD0142E0660F771F92
:100C7000881F991F4A95D1F708958F929F92AF923E
:100C8000BF920F931F93CF93DF93CDB7DEB7A1979A
:100C90000FB6F894DEBF0FBECDBF19A2423008F4E4
:100CA0004AE08E010F5D1F4F842E912CA12CB12C98
:100CB000A50194010E94C80BE62FB901CA01015099
:100CC0001109EA3014F4E05D01C0E95CD801EC934D
:100CD000232B242B252B61F70115110571F0F80149
:100CE00001900020E9F73197AF01401B510BB8018B
:100CF00085EC92E00E948C0002C080E090E0A1961A
:100D00000FB6F894DEBF0FBECDBFDF91CF911F911C
:100D10000F91BF90AF909F908F900895CF93DF93E6
:100D2000CDB7DEB728970FB6F894DEBF0FBECDBFA4
:100D300040910401509105016091060170910701F5
:100D40004D835E836F83788740910801509109013C
:100D500060910A0170910B0149835A836B837C83F4
:100D60002091CC02821710F08FEF820F3091CD02CC
:100D700090E0FE01E80FF91F303121F4243011F426
:100D8000618101C06581606885EC92E028960FB6AC
:100D9000F894DEBF0FBECDBFDF91CF910C94EC0471
:100DA00030911B02313208F04BC08091F701811164
:100DB000FCCF90911A0222E02093F70121E02093CA
:100DC000F6012FEF2093F5011092F4013093F30117
:100DD000EAEFF1E0A3EDB1E020E0321721F041911C
:100DE0004D932F5FFACF1092D2012091D201990F2B
:100DF000922B9093D2019091D101913061F4109295
:100E0000D1019091D2019093BB009091BC0093FDD1
:100E1000F8CF95EC01C095EE9093BC009091F7014E
:100E20009230E1F39091F5019F3F79F08091F501C7
:100E3000803241F08091F501803331F084E005C0CB
:100E400081E003C082E001C083E01092F9011092BA
:100E50001B021092F8010895FC0123812223B1F0B6
:100E60008181682B6083828191E09093F801809367
:100E70001A021092F90110921B0289EB92E00E9473
:100E800025020E94D006282F30E002C020E030E08A
:100E900081E090E0232B11F080E090E00895EF9244
:100EA000FF920F931F93CF938C01FC0184E0C0E06D
:100EB00060FF02C09589C92B6695815031968111DA
:100EC000F7CF413011F4F8014489F8018585C82B2A
:100ED000C42B7801FEE0EF0EF11CF80162896C2B47
:100EE000C7010E942C07F801628960956C23C70135
:100EF000CF911F910F91FF90EF900C942C07CF93FF
:100F0000DF93282F30E0F901E255FF4F8491F9017A
:100F1000E656FF4FD491F901EA57FF4FC491CC2315
:100F200091F081110E94EF05EC2FF0E0EE0FFF1F12
:100F3000E458FF4FA591B491EC91ED2381E090E04E
:100F400021F480E002C080E090E0DF91CF9108952D
:100F50001F93CF93DF93282F30E0F901E255FF4F25
:100F60008491F901E656FF4FD491F901EA57FF4FFA
:100F7000C491CC23C1F0162F81110E94EF05EC2FF4
:100F8000F0E0EE0FFF1FEE58FF4FA591B4919FB711
:100F9000F894111104C08C91D095D82302C0EC9123
:100FA000DE2BDC939FBFDF91CF911F910895CF93EC
:100FB000DF9390E0FC01E656FF4F2491FC01EA57D5
:100FC000FF4F8491882361F190E0880F991FFC0105
:100FD000E859FF4FC591D491FC01EE58FF4FA59100
:100FE000B491611109C09FB7F8948881209582233C
:100FF0008883EC912E230BC0623061F49FB7F89484
:101000008881322F309583238883EC912E2B2C936B
:101010009FBF06C08FB7F894E8812E2B28838FBF1F
:10102000DF91CF9108958F929F92AF92BF92CF920E
:10103000DF92EF92FF926B017C010E9418064B0138
:101040005C01C114D104E104F104F1F00E9418061E
:10105000DC01CB0188199909AA09BB09883E934094
:10106000A105B10570F321E0C21AD108E108F10829
:1010700088EE880E83E0981EA11CB11CC114D10417
:10108000E104F10419F7DDCFFF90EF90DF90CF90EE
:10109000BF90AF909F908F9008951F920F920FB6C0
:1010A0000F9211242F933F938F939F93AF93BF93EE
:1010B0008091CD019091CE01A091CF01B091D0014E
:1010C0003091DE0223E0230F2D3720F40196A11D7D
:1010D000B11D05C026E8230F0296A11DB11D209366
:1010E000DE028093CD019093CE01A093CF01B09307
:1010F000D0018091DF029091E002A091E102B091D5
:10110000E2020196A11DB11D8093DF029093E002DF
:10111000A093E102B093E202BF91AF919F918F91B2
:101120003F912F910F900FBE0F901F9018957894BC
:1011300084B5826084BD84B5816084BD85B58260DC
:1011400085BD85B5816085BD80916E00816080938D
:101150006E001092810080918100826080938100F6
:101160008091810081608093810080918000816006
:10117000809380008091B10084608093B100809161
:10118000B00081608093B00080917A008460809389
:101190007A0080917A00826080937A0080917A0050
:1011A000816080937A0080917A00806880937A00D1
:1011B0001092C100E0912C02F0912D0282E0808318
:1011C000E0912802F09129021082E0912A02F09128
:1011D0002B028FEC808310923402E0913002F09168
:1011E000310286E08083E0912E02F0912F0280810F
:1011F00080618083E0912E02F0912F0280818860CF
:101200008083E0912E02F0912F028081806880839C
:10121000E0912E02F0912F0280818F7D808360E02B
:1012200082E00E94D70761E084E00E94D70761E076
:1012300085E00E94D70761E086E00E94D70761E061
:1012400087E00E94D70761E088E00E94D70761E04D
:1012500089E00E94D70761E08AE00E94D70761E039
:101260008BE00E94D70761E08CE00E94D70720E066
:1012700042E060E185EC92E00E9484056FEF85EC2E
:1012800092E00E949A0227EE822E23E0922EA12C59
:10129000B12C36E0232E312C412C512C82E00E94BF
:1012A0007F07019709F023C1C0E0D0E096E4692EE2
:1012B000712C82E00E947F07019729F4C0E0D0E002
:1012C00086E4682E712C0E943F0BA50194010E94B8
:1012D000960BDC01CB010196A11DB11D8093C901C4
:1012E0009093CA01A093CB01B093CC012FB7F8948F
:1012F0008091CD019091CE01A091CF01B091D0010C
:101300002FBF4091C9015091CA016091CB017091EA
:10131000CC01840F951FA61FB71F8093C90190931E
:10132000CA01A093CB01B093CC010E943F0BA50151
:1013300094010E94960BAB01BC014F5F5F4F6F4F52
:101340007F4F8091C9019091CA01A091CB01B091CA
:10135000CC018A019B01080F191F2A1F3B1FC901DD
:10136000B80127E030E040E050E00E94960B609327
:10137000C5017093C6018093C7019093C801672B84
:10138000682B692B99F40E943F0BA20191010E94E6
:10139000960BDC01CB010196A11DB11D8093C50107
:1013A0009093C601A093C701B093C801C090C50136
:1013B000D090C601E090C701F090C8018601C60137
:1013C0000E940D03BE016A5B7F4F072E000C880B45
:1013D000990B0E941308C6010E94B40221E0621A10
:1013E00071082296161417040CF463CF82E00E9451
:1013F0007F07892B09F07BC0C5E0D0E0C8010E94BF
:101400000D036AEF70E080E090E00E941308C801CD
:101410000E94B4026AEF70E080E090E00E9413083E
:10142000219761F7C8010E940D036091C30170917B
:10143000C401C60ED71ED092C401C092C30180E081
:101440000E948E064CE050E064E471E085EC92E08E
:101450000E948C0081E00E948E060D2C000CEE088C
:10146000FF08F7FE0EC06DE285EC92E00E94680274
:1014700066277727CB016C197D098E099F094AE001
:1014800003C04AE0C701B6010E943D062FB7F89499
:101490008091CD019091CE01A091CF01B091D0016A
:1014A0002FBF885A944EAF4FBF4F8093BF01909388
:1014B000C001A093C101B093C2014091BB01509102
:1014C000BC016091BD017091BE018091BF019091FE
:1014D000C001A091C101B091C201481759076A0724
:1014E0007B07E4F482E00E947F07892B19F00E94B9
:1014F0008E01D4CE2FB7F8948091CD019091CE017A
:10150000A091CF01B091D0012FBF8093BB019093E8
:10151000BC01A093BD01B093BE01CFCF8091C501A6
:101520009091C6010E94B402E2CFECE1F2E0138296
:10153000128288EE93E0A0E0B0E084839583A683D6
:10154000B78320E131E03183208325EC30E035871B
:10155000248724EC30E03787268720EC30E0318B7D
:10156000208B21EC30E0338B228B22EC30E0358B6A
:10157000248B26EC30E0378B268B118E128E138E47
:10158000148EE9EBF2E01382128284839583A683A2
:10159000B78382E291E091838083E5ECF2E01382ED
:1015A000128284E391E091838083108A8FEF878792
:1015B0001686118A87E2838714861586128611861D
:1015C00084E0828B82E0838B81E0848B80E1858B59
:1015D00080E2868B80E4878B80E8808F40E050E05B
:1015E00063E0CF010C9454028F929F92AF92BF920E
:1015F000CF92DF92EF92FF92CF93DF93EC0168815D
:1016000079818A819B81611571058105910521F49C
:1016100064E279ED8BE597E02DE133EF41E050E0B6
:101620000E94960B49015A019B01AC01A7EAB1E463
:101630000E94B50B6B017C01ACEEB4EFA5019401E7
:101640000E94C30BDC01CB018C0D9D1DAE1DBF1D87
:10165000B7FF03C00197A109B04888839983AA8383
:10166000BB83BC01CD019F77DF91CF91FF90EF90BD
:10167000DF90CF90BF90AF909F908F9008958F9202
:101680009F92AF92BF92CF92DF92EF92FF926091C2
:101690000001709101018091020190910301611597
:1016A00071058105910521F464E279ED8BE597E000
:1016B0002DE133EF41E050E00E94960B49015A01C1
:1016C0009B01AC01A7EAB1E40E94B50B6B017C0160
:1016D000ACEEB4EFA50194010E94C30BDC01CB0179
:1016E0008C0D9D1DAE1DBF1DB7FF03C00197A10945
:1016F000B0488093000190930101A0930201B09340
:101700000301BC01CD019F77FF90EF90DF90CF9058
:10171000BF90AF909F908F90089560930001709359
:10172000010180930201909303010895052E97FB18
:101730001EF400940E94AD0B57FD07D00E94C80B09
:1017400007FC03D04EF40C94AD0B509540953095AA
:1017500021953F4F4F4F5F4F08959095809570951D
:1017600061957F4F8F4F9F4F08950E94EA0BA59F71
:10177000900DB49F900DA49F800D911D112408958C
:10178000B7FF0C94B50B0E94B50B821B930B089509
:10179000A1E21A2EAA1BBB1BFD010DC0AA1FBB1F75
:1017A000EE1FFF1FA217B307E407F50720F0A21BE7
:1017B000B30BE40BF50B661F771F881F991F1A9454
:1017C00069F760957095809590959B01AC01BD017E
:1017D000CF010895A29FB001B39FC001A39F700DD8
:1017E000811D1124911DB29F700D811D1124911D29
:1017F0000895EE0FFF1F0590F491E02D099481E00C
:0C18000090E0F8940C94040CF894FFCFD6
:10180C000100000000401454004010500000000083
:10181C001F018C00B6006C01E700C500D900000068
:10182C0000002502F8017602CC01F001DC01CD01AB
:10183C000000000068028C007602750284055402D8
:10184C009A027B0253756D612077796E696B753ADC
:02185C0000008A
:00000001FF
